:020000040800F2
:100000005807002079020008651C0008611C0008E0
:10001000631C0008931B0008452300080000000033
:100020000000000000000000000000004B1F00085E
:10003000951B000800000000CD1C00083B200008B4
:10004000930200089302000893020008930200083C
:10005000930200089302000893020008930200082C
:10006000930200089302000893020008930200081C
:10007000930200089302000893020008930200080C
:1000800093020008930200089302000893020008FC
:1000900093020008930200089302000893020008EC
:1000A00093020008930200089302000893020008DC
:1000B00093020008930200089302000893020008CC
:1000C00093020008930200089302000893020008BC
:1000D00093020008752100089302000893020008AB
:1000E000930200089302000893020008930200089C
:1000F000930200089302000893020008930200088C
:10010000930200089302000893020008930200087B
:10011000930200089302000893020008930200086B
:10012000930200089302000893020008930200085B
:1001300000F002F800F090F80AA090E8000C824469
:100140008344AAF10107DA4501D100F085F8AFF246
:10015000090EBAE80F0013F0010F18BFFB1A43F0A5
:1001600001031847503C0000703C0000103A24BFC7
:1001700078C878C1FAD8520724BF30C830C144BF0C
:1001800004680C607047000000230024002500264E
:10019000103A28BF78C1FBD8520728BF30C148BFEA
:1001A0000B6070476E2900F06781702900F0A9820A
:1001B000662903F02485652903F02185672903F06A
:1001C0001E85612903F01D8503681B0A28BF41F0C5
:1001D0008001692900F01481642900F011817529DA
:1001E00000F00E816F2900F03682782900F07582C8
:1001F000E92900F0D181E42900F0CE81F52900F051
:10020000CB81EF2900F03382F82900F07482036873
:10021000DB0928BF41F08001632900F0778773294B
:1002200000F07C87E32900F08787F32900F08C87B2
:10023000002070471FB500F0D9FF04000020002106
:1002400003F01AF8401C60600020002102F0FEFF5D
:10025000E0601FBD10B510BD00F09AFF1146FFF71A
:10026000E9FF02F0A7FD01F077F803B4FFF7F2FF12
:1002700003BC01F0BFF80000094880470948004767
:10028000FEE7FEE7FEE7FEE7FEE7FEE7FEE7FEE746
:10029000FEE7FEE704480549054A064B70470000A3
:1002A0003D200008310100085801002058070020B7
:1002B00058030020580300201CB50C46064B7B4415
:1002C00069460090204600F0F0F804460020694698
:1002D00000F0FEF820461CBD0F02000040EA0103BA
:1002E00010B59B070FD1042A0DD310C808C9121FDF
:1002F0009C42F8D020BA19BA884201D9012010BD19
:100300004FF0FF3010BD1AB1D30703D0521C07E0E5
:10031000002010BD10F8013B11F8014B1B1B07D149
:1003200010F8013B11F8014B1B1B01D1921EF1D1BA
:10033000184610BD70477047704770B50446856910
:100340000068C10601D5302600E02026C00707D08E
:1003500070BDD4E9012130469047206A401C2062DC
:100360006D1EF6D570BD70B5044685690078C0076E
:1003700007D170BDD4E9012120209047206A401C9C
:1003800020626D1EF6D570BD09684A0501D540B2E0
:100390007047C905FCD500B2704709684A0501D508
:1003A000C0B27047C905FCD580B2704770B50C4625
:1003B0000546012A05D02878800600D5EA69002381
:1003C00002E0012305E05B1C934202D2E05C0028BE
:1003D000F9D1A869E618C01AA861286A18442862E9
:1003E0002846FFF7AAFF04E0D5E9012114F8010B24
:1003F0009047B442F8D32846FFF7B5FF70BD000020
:100400002DE9F0410646002410687529314616A5ED
:1004100010D0FFF7B9FF002802DA404213A507E029
:1004200031688A0701D512A502E0490704D511A554
:10043000012401E0FFF7B1FF00210A2206F12407A1
:1004400009E0B0FBF2FCB0FBF2F302FB1C00303021
:1004500078541846491C0028F3D123462A463046D2
:10046000BDE8F04100F061BA000000002D0000007E
:100470002B0000002000000011680268006A53058C
:1004800001D508700AE0D30501D5088006E01306FF
:1004900003D5C217C1E9000200E0086001207047DF
:1004A00001694A1C02610878704700B58FB0CDE938
:1004B00001310021059105497944CDE90310114628
:1004C000684600F029F90FB000BD0000E5FFFFFF0E
:1004D0000A6802F8010B0A60704700002DE9FF5F0F
:1004E00015468A460446DFF8AC80F8440027D8E970
:1004F00000103E46CDE9001010E03AF816106A46AA
:1005000002A800F025FE411C07D02178890603D5FA
:10051000E269391891420DD80744761C207880068C
:1005200002D5E069B84205DDAE42E6DB3AF81600D6
:100530000028E2D1A069C01BA0612046FFF7FDFEA4
:10054000D8E90010CDE90010002017E03AF81810A3
:100550006A4602A800F0FCFDB0F1FF3F81460BD0D7
:1005600000250DF1080B05E0D4E901211BF8050079
:1005700090476D1C4D45F7D308F10100B04280460D
:10058000E4DB206A384420622046FFF7ECFEBDE839
:10059000FF9F0000CA3700002DE9F0418046D21DC0
:1005A00022F007020025D2E90002F52915A614D091
:1005B000011E72F1000106DA0023D0EB030063EBA9
:1005C000020211A608E0D8F800108B0701D50FA68B
:1005D00002E0490701D50EA601251146002408F1C5
:1005E000240704E000F05CF930323A55641C50EA0C
:1005F0000102F7D12B46324621464046BDE8F04184
:1006000000F093B9000000002D0000002B00000056
:100610002000000030B4002100F1240408E002F0C2
:100620000705D208303542EA4372DB086554491C9D
:1006300052EA0305F3D10468002310A2250707D569
:10064000A40600D421B1C46901230DA2641EC461B3
:1006500030BC00F06AB910B5044621461068FFF7B7
:100660009CFE02462046BDE810400023D2E7D21D82
:1006700022F00701D1E90023CCE7000000000000D0
:1006800030000000F0B40D460188090502D5214C68
:100690007C4402E01F4C7C440E34002100F124060F
:1006A00008E002F00F071209E75D42EA03721B0936
:1006B0007754491C52EA0307F3D10278002312074A
:1006C00004D5702D06D009B1022311342246F0BCA6
:1006D00000F02BB901231034F8E770B504460D463D
:1006E00021461068FFF759FE024629462046BDE81C
:1006F00070400023C6E7D21D22F00703D3E9002390
:10070000C0E70368126843F0200303600823C36155
:100710000023B7E72C3600002DE9F05F8946044638
:100720004FF0000ADFF874B1FB44C0F820A0204667
:10073000E1688847002874D0252806D0D4E9012133
:100740009047206A401C2062F1E700265F46204661
:10075000E16888472028054607DB312D05D2781946
:1007600010F8200C08B10643F1E7B00701D526F0D8
:100770000406C4F81CA00027C4F818A02A2D09D02C
:10078000284601F0B0FE38B304EB8708303DC8F8C6
:10079000185019E059F8041B204604EB87029161B8
:1007A000E1688847012F054618D1E069002820DA62
:1007B00026F020061DE0D8F8180000EB800005EBBD
:1007C00040003038C8F818002046E16888470546E0
:1007D00001F089FE0028EED1012F0AD02E2D08D17C
:1007E0002046E16888477F1C0546022F46F0200618
:1007F000C4DBA069002803DA404246F00106A0618C
:10080000F00701D026F010066C2D0BD0682D09D012
:100810004C2D39D06A2D35D0742D35D07A2D33D06A
:1008200016E038E0E1682F4620468847B842054682
:1008300009D16C2F26D04FF48060E1680643204632
:100840008847054604E06C2F1AD04FF480700643A9
:100850000DB3A5F14100192802D8203546F40066F1
:100860004A462946204626604E46FFF79BFC80B14B
:1008700001280BD0F61D26F0070000F1080956E705
:100880004020E4E78020D8E70020D6E706F10409FD
:100890004DE7284652E7206ABDE8F09FBC350000CE
:1008A00030B5B0F10A024FEA900E71F100034EEA42
:1008B000817EB0EB0E0061EB91014FEA101E4EEA13
:1008C000017E10EB0E0041EB11114FEA102E4EEAA3
:1008D000016E10EB0E0041EB11214FEA104E4EEA73
:1008E000014E10EB0E0041EB1141401841F10001A7
:1008F0004FEAD00040EA41704FEAD10110EB800589
:100900004FEA810444EA907444EB01046D1944EB0E
:100910000404521BA3414FF0000348BF0A3200D524
:1009200030BD401C41F1000130BD2DE9F0470D46BE
:1009300099469246044600F124080168880604D5C9
:10094000E06921F01001216000E00120A84201DDF2
:10095000471B00E00027A1697A1902EB0900081A79
:10096000A0612078C00602D42046FFF7E6FC0026EE
:1009700008E0D4E901211AF806009047206A401CDB
:10098000761C20624E45F4DB2078C0060AD520464E
:10099000FFF7D3FC06E0D4E9012130209047206A1C
:1009A000401C2062381EA7F10107F4DC07E0D4E9FF
:1009B000012118F805009047206A401C2062281E7B
:1009C000A5F10105F3DC2046FFF7CDFC20780006F9
:1009D00002D50220BDE8F0870120FBE770472DE932
:1009E000FF4F0C461E464FF0FF378BB0D2E9000197
:1009F000DDF860800A908A46C1F30A5505B93D4684
:100A0000002108464FF00000BAF1000F00F440004A
:100A100005DA00EB80004FF4400101EA50004FEA94
:100A20009059B9F1010F00DDB9460A9850EA4A0021
:100A30000ED044F61050A5F2FF3545432F14B8F1FF
:100A4000000F1ED07542291E1EDDC9F100021CE0F8
:100A5000B8F1010F4FF0000001D0302103E0F24364
:100A600005E02154401CB042FBDB3046002200214F
:100A700021540B99C1F80880C1E900200FB0BDE8EE
:100A8000F08FBD1B6D1CDEE74A4600DA694206A8FE
:100A900000F0F0FB06AB93E8070003AB83E8070028
:100AA00050460A9900F0ADFC8DE80700A0F5005013
:100AB0001F3800900398002D0ADD42F21F014A46BC
:100AC0000844002303A90390684600F016FF09E0DC
:100AD000A0F500504A461F38002303A9039068463A
:100AE00000F020FF8DE807000004000C03D04FF059
:100AF000FF30410800E01046B8F1000F03D000229B
:100B0000009215461EE0751E05D4FFF7C9FE30326F
:100B100062556D1EF9D5B3460122084302D000226A
:100B20007F1C04E02078302801D100227F1E002A9B
:100B3000099784D01DE0112D07DAFFF7B1FE30329E
:100B400062556D1C50EA0102F5D1084302D00098AD
:100B5000C8B10EE00021681E05E0235C625C6354AE
:100B60002254401E491C8142F7DBAB46A81B401EA5
:100B70000990002004F80B000B98099AC0F808802F
:100B8000C0E9002B7AE711264FF0000857E72DE95E
:100B9000F04F88460446D21D22F0070191B0D1E9FA
:100BA0000001CDE90A0101F0CEFB02460B98C00F0F
:100BB00001D02D2007E02068810701D52B2002E01D
:100BC000202101EAC000032A099001D0072A05DB91
:100BD00003464146204600F00DFB0BE120788006DD
:100BE00001D5E06900E00620B8F1650F814606D026
:100BF000B8F1660F18D0B8F1670F70D131E000205E
:100C0000B9F1110F009001DB112301E009F101039B
:100C10000AAA01A90CA8FFF7E2FEDDE90C70002684
:100C200009F10105834647E001204B4600904FF053
:100C300000470AAA01A90CA8FFF7D1FEDDE90DB013
:100C40000C995D46002610B909F101000D18B9EBA9
:100C5000050003D4C0F1FF3609F10105A5EB090039
:100C60002BE0B9F1010F01DA4FF001090020B9F1D1
:100C7000110F0090484601DD112300E003460AAA47
:100C800001A90CA8FFF7ABFEDDE90C704D4600266C
:100C90008346207800070AD4AB4500DA5D4601A8F8
:100CA000012D04DD411911F8011C302907D04F45F1
:100CB00002DA17F1040F04DA012082460FE06D1EFC
:100CC000EEE7002F02DCED1B3E4403E0781CA84257
:100CD00000DD7D1CB81B00F1010A4FF000472078B1
:100CE000000703D4AA4501DB4FF0FF3A0021B7F11A
:100CF000004F0DF143088DF8431024D002202B2320
:100D0000002F01DA7F422D230A21021EA0F10100EB
:100D100000DC5FB197FBF1FC97FBF1F201FB1C7C5F
:100D200017460CF1300C08F801CDEEE7A8F10100F0
:100D300003702188090501D5452100E06521A0F156
:100D4000010800F8011C09980FA9A1EB0807FF1D75
:100D500000B10120411901EBEA70A1693844081A79
:100D6000401EA0612078C00602D42046FFF7E5FAB5
:100D7000099828B1D4E901219047206A401C2062DB
:100D80002078C00622D52046FFF7D7FA1EE0002EB5
:100D900004DBB34502DD01A8805D00E03020D4E92A
:100DA00001219047206A401C2062761CAAF10100B4
:100DB0005FEA000A0AD100F019FAC0680168405CD5
:100DC000D4E901219047206A401C2062281EA5F129
:100DD0000105DCDC07E0D4E9012118F8010B90479C
:100DE000206A401C2062381EA7F10107F3DC204670
:100DF000FFF7B9FA032011B041E600002DE9F04FEA
:100E000004460D46D21D22F0070089B0D0E90097B4
:100E10004846394601F097FA0246F80F01D02D23D3
:100E200007E02068810701D52B2302E0202101EA99
:100E3000C0038DF820300BB1012000E00020032A10
:100E4000824601D0072A04DB2946204600F0D2F969
:100E50003FE12078800601D40D2500E0E569C7F365
:100E60000A560D2D49DA00214FEA175B08464FF06C
:100E70000000002F00F4400007DA00EB80004FF480
:100E8000400100EBD07001EA60008115012901DD0D
:100E90004FF0FF3100224FEA850CBCF1180F06D34A
:100EA0001346ACF118004FF08052C24003E04FF4FB
:100EB000801323FA0CF30CF10C0CBCF1200F04D3BB
:100EC000ACF1200C09FA0CF001E007FA0CF0002953
:100ED0004FF0004801DD18B90FE00ED140450CD3AA
:100EE00019EB02095F4121B9404502D19F4329EA2C
:100EF0000209BBEB175F00D0761C2088000502D5E5
:100F00007B48784402E07A487844193808AA3023AC
:100F100002F80A30037C0AF10101002E0AF1020AEC
:100F200053546A4602DC4FF0300101E04FF03101CA
:100F30004FF001088DF8001002D0A6F2FF3603E052
:100F400059EA470100D06B4E002D02DC21780907D9
:100F500004D54FF002082E218DF80110C44600215F
:100F60000BE0C7F303433F01C35C491C6D1E02F84D
:100F70000830052908F1010801DA002DF1DC002113
:100F80000CE000EB1973491C1B786D1E082902F850
:100F900008304FEA091908F1010801DA002DF0DCE8
:100FA00021688B0602D516E0A8F10108E04505DDB1
:100FB00002EB080313F8013C302BF5D0B8F1000F19
:100FC00009DD02EB080313F8013C2E2B03D10907BE
:100FD00001D4A8F10108002D05DD3E2102F808101A
:100FE0006D1E08F10108407C002E02F8080008F18F
:100FF000010804DA2D20764202F8080002E02B20D6
:1010000002F808000A214FF47A70864208F10108BC
:101010000BDB96FBF0F3303302F8083096FBF0F36D
:1010200008F1010800FB136601E0642E0CDB64206C
:1010300096FBF0F3303302F8083096FBF0F308F13A
:10104000010800FB136601E00A2E06DB96FBF1F0B7
:10105000303002F8080008F1010896FBF1F001FBBE
:101060001060303002F80800A16908F1010808EBAF
:10107000050202EB0A00081AA0612078C00602D41B
:101080002046FFF75AF9216A08AE01EB0A002062F8
:1010900004E0D4E9012116F8010B9047BAF1010AE6
:1010A000F7D22078C00602D52046FFF746F96E46F3
:1010B00009E016F8010B3E280FD0D4E90121904732
:1010C000206A401C2062B8F10108F2D22046FFF7E6
:1010D0004AF909B00320BDE8F08F206A2844206255
:1010E00003E0D4E90121302090476D1EEBD3F8E7EF
:1010F000062E000002FCFFFF10B5436913B1AFF3E9
:10110000008001E0FFF752F9012010BD127800F1D4
:1011100024010A7000224A700122EDE711684FF0A5
:10112000FF32E9E710B5436913B1AFF3008001E086
:10113000FFF7D4F9012010BD128800F12401828448
:101140000022C2840122EDE711684FF0FF32E9E787
:1011500070B516460C46054600F040F8036893F853
:101160000101012806D0FF2C0FD8185D68B10120BD
:101170002C7070BDD3F807013246214603F20713E5
:1011800003442846BDE8704018474FF0FF3070BD5B
:10119000754600F0EBF8AE4605006946534620F070
:1011A0000700854618B020B5FFF774F8BDE8204069
:1011B0004FF000064FF000074FF000084FF0000B13
:1011C00021F00701AC46ACE8C009ACE8C009ACE8C6
:1011D000C009ACE8C0098D467047000010B500F0AA
:1011E00005F8001D10BD00BF9120000000487047A9
:1011F000180100202DE9F0411F460446032601682E
:10120000072A01F4006004DB08B116A505E016A565
:1012100003E008B115A500E015A521F0100020603D
:10122000A069C01EA0610FB1401EA0612046FFF75B
:1012300084F84FB1D4E9012138469047206A401C18
:101240002062C01C206206E0206AFAE7D4E901218E
:1012500015F8010B9047761EF8D22046FFF783F869
:10126000BDE8F0814E414E006E616E00494E460071
:10127000696E66002DE9F047814616468AB035480A
:1012800078440DC88DE80D0032487844801C03ACCA
:101290000DC884E80D0041F69B300844372190FBCF
:1012A000F1F290FBF1F5A5F1800501FB12041B3C66
:1012B00002D56442012000E00020DFF898A08046BB
:1012C0000027FA44AAF1BE0A0EE0E0070AD032462F
:1012D000684607EB470101230AEB810100F022FB7E
:1012E0008DE8070064107F1C002CEED1194F7F445D
:1012F000AE3F19E0E80715D007EB04100DF1180A0E
:1013000090E80E008AE80E00C068F04201D19819FA
:1013100008903246012306A903A800F003FB03ABA3
:1013200083E807006D10641C002DE3D14FF001032A
:1013300032466946B8F1000F03A802D000F0DDFA8A
:1013400001E000F0EFFAC9E90001C9F808200AB08D
:10135000BDE8F087182B000010B50446AFF30080FD
:101360002046BDE81040FEF780BF000000487047EF
:10137000F80000204FF0013C50F8042B51F8043BDA
:101380009A4221D1A2EB0C03934313EACC1317D159
:1013900050F8042B51F8043B9A4215D1A2EB0C03F0
:1013A000934313EACC130BD150F8042B51F8043BB0
:1013B0009A4209D1A2EB0C03934313EACC13DBD07E
:1013C0004FF00000704700BFD01A01BAB1FA81F1A6
:1013D00001F0180122FA01F0CB40C1F12001DBB28B
:1013E000C0B2C01A2CFA01F3D11A914311EAC31109
:1013F000E6D1704701491820ABBEFEE72600020087
:1014000070475FEA400C08BF91F0000F4FEA8C2351
:101410004FEAC12243EA51514FEA1C5018BF00F570
:10142000F0404FEA300018BF41F000415FEA6C5CC9
:1014300000F02980BCF1FF3F08BF40F080407047BA
:10144000130C06BF12044FF0100C4FF0000C130EDB
:1014500004BF12020CF1080C130F04BF12010CF1AF
:10146000040C930F04BF92000CF1020CD30F04BFC5
:1014700052000CF1010C11464FF00002A0F11F00C8
:10148000A0EB0C00704711F0004F08BF704731F01F
:1014900000413FF4D5AF0B0C06BF09044FF0100C10
:1014A0004FF0000C0B0E04BF09020CF1080C0B0FDF
:1014B00004BF09010CF1040C8B0F04BF89000CF16F
:1014C000020CCB0F04BF49000CF1010CCCF120033E
:1014D000A0EB0C0022FA03F302FA0CF241EA03013A
:1014E00000F10100704720F07F4C80EA030023F0F8
:1014F0007F47ACEB070303F57C5300F0004003F19A
:10150000FF032DE980494FEA154B09B44FEA144314
:1015100025EA0B4E24EA03480FF2042606EB1327B4
:1015200049083E785FEA320203FB0667C7F5000709
:1015300007FB06F64FEA54374FEAD64606F1020695
:1015400007FB066CCCF1005C4FEA1C472CEA074C09
:1015500007FB06F40CFB06F504EB15464FEA96165E
:1015600034BF00204FF000404FEAD13706FB07FCA4
:101570004FEA1C4C0CFB0BF7D21B03FB0CF761EB87
:1015800007010CFB0EF7B0EB074072EB17420CFBA8
:1015900008F734BFA2EB0742B2EB074261EB1741F9
:1015A0004FEA0C444FEA910706FB07FC4FEA1C4C3C
:1015B0000CFB0BF7B0EBC74072EB573203FB0CF799
:1015C00034BFA2EBC742B2EBC74261EB57310CFB11
:1015D0000EF7B0EBC70072EB57720CFB08F734BF85
:1015E000A2EBC702B2EBC70261EB5771039F4FEA50
:1015F000816141EA921104EBCC044FEAD1374FEA02
:10160000826206FB07FC42EA90124FEA80604FEAD2
:101610001C4C0CFB0BF7D21B03FB0CF761EB070117
:101620000CFB0EF7B0EB074072EB17420CFB08F710
:1016300034BFA2EB0742B2EB074261EB17414FEA1E
:101640008C554FEA910704EB9C2406FB07FC4FEAFC
:101650001C4C0CFB0BF7B0EBC74072EB573203FB93
:101660000CF734BFA2EBC742B2EBC74261EB573174
:101670000CFB0EF7B0EBC70072EB57720CFB08F7D0
:1016800034BFA2EBC702B2EBC70261EB577115EB97
:101690004C254FEA816141EA92114FEA82624FEA9A
:1016A000D13742EA901206FB07FC44F100044FEAEE
:1016B00080604FEA1C4C0CFB0BF7D21B03FB0CF7B2
:1016C00061EB07010CFB0EF7B0EB074072EB174222
:1016D0000CFB08F734BFA2EB0742B2EB074261EB09
:1016E000174115EB1C154FEA813141EA92414FEA4F
:1016F000823242EA90424FEA80304FEA0C7644F15F
:10170000000448EA03434EEA0B484FF0000EB2EBE8
:10171000080C71EB030724BF624639464EEB0E0EF0
:101720004FF0000B0018524149414BEB0B0BB2EB51
:10173000080C71EB03077BF1000B24BF62463946AE
:101740004EEB0E0E4FF0000B0018524149414BEB8F
:101750000B0BB2EB080C71EB03077BF1000B24BF02
:10176000624639464EEB0E0E51EA020718BF46F0AC
:10177000010616EB0E7655F1000254F1000103D577
:10178000BDE88901BDE80088BDE88901BDE80048E1
:10179000B619524141EB0101A3F10103704780806A
:1017A0007F7E7D7C7B7A79787776767574737271BB
:1017B00071706F6E6E6D6C6C6B6A6A696868676673
:1017C00066656464636362616160605F5F5E5E5D05
:1017D0005D5C5C5B5B5A5A59595858575756565579
:1017E00055555454535352525251515050504F4FDB
:1017F0004F4E4E4D4D4D4C4C4C4B4B4B4A4A4A492B
:10180000494948484847474747464646454545446D
:101810004444444343434342424242414141002BFA
:101820009C4630D477002BD01CB54FEA370703B461
:101830004FF010004FF01001BAF1000F06D0BCF1CC
:10184000000FDCBF40F0080040F008014FF000003E
:101850000FBCBDE810400BF1010BBBF1010F08BF3D
:101860005FEA170722BF12F1010211F101014FF0E7
:10187000004143F1000300F0004043EA00007047DC
:10188000F9D35708D0E746EA064613F1400F4FEA6E
:1018900016461FDD13F1200FDFBF16430A46002155
:1018A00020335B42BED0C3F1200746EA064602FA67
:1018B00007F74FEA164646EA0706C3F1200722FA61
:1018C00003F201FA07F721FA03F14FF0000342EAAD
:1018D0000702A7E746EA020646EA06464FEA164628
:1018E00046EA0106BCBF46EA0646360C4FF0000346
:1018F0004FF000024FF0000194E72DE9804C9A462A
:10190000934670B491E8380007C831EA400C48BFEC
:1019100034EA430C03D5FFF7E6FDFFF780FFF0BC88
:10192000BDE8008C2DE9804C9A46934670B491E84E
:10193000380007C810F0804F08BF13F0804F03D164
:1019400000F005F8FFF76BFFF0BCBDE8008C20F05D
:101950007F4780EA030023F07F4C07EB0C03A3F5DD
:101960007C5300F00040A3F1FE0392F0000F00F062
:10197000B38095F0000F00F077802DE901494FEA20
:1019800011404FEA144621EA004800FB06FC24EA15
:10199000064708FB06F607FB08F800FB07F718EBFD
:1019A00006484CEB164C4FEA124B18EB07484FEA2F
:1019B00015464CEB174022EA0B4E0BFB06FC25EAC2
:1019C00006470EFB06F607FB0EFE0BFB07F71EEBAA
:1019D000064E4CEB164C4FF000061EEB074E4CEB40
:1019E000174B18EB0B0840F1000018EB0E0B58EBEF
:1019F000000840F100008F1A4FF000013CBFC943BE
:101A0000661B14BFB5EB040C00213CBFC943F61B99
:101A10004FEA17444EEA8E0E27EA04454FEA1C4768
:101A200004FB07622CEA074C05FB07F70CFB05F6E5
:101A300004FB0CFC16EB074642EB174216EB0C4678
:101A400042EB1C421BEB060658EB0202414146EA00
:101A50009E0601D5BDE80189B619524141EB01014D
:101A6000A3F10103BDE801894FEA14454FEA11478C
:101A700024EA054621EA074C05FB07F406FB07F7B5
:101A80000CFB06F105FB0CFC11EB074144EB174482
:101A90004FEA124711EB0C4144EB1C4422EA074C7D
:101AA00005FB07F206FB07F70CFB06F605FB0CFC33
:101AB00016EB074642EB174216EB0C4642EB1C4571
:101AC0006A1854F1000148BF7047B619524141EB02
:101AD0000101A3F10103704795F0000F37D04FEAE1
:101AE00011424FEA144721EA024624EA074C02FB5E
:101AF00007F106FB07F70CFB06F402FB0CFC14EBEA
:101B0000074441EB17414FEA154714EB0C4441EBF6
:101B10001C4125EA074C02FB07F506FB07F70CFB07
:101B200006F602FB0CFC16EB074645EB174516EBD9
:101B30000C4645EB1C42121951F1000148BF704799
:101B4000B619524141EB0101A3F1010370474FEA7D
:101B500014454FEA114724EA054621EA074C05FBE4
:101B600007F106FB07F70CFB06F24FF0000605FB3A
:101B70000CFC12EB074241EB174112EB0C4251EB0C
:101B80001C4148BF7047921841EB0101A3F10103CA
:101B90007047FEE7704700000349024600200968CD
:101BA000114200D00120704700040140F0B5CA780E
:101BB000002502F00F03D20601D58A7813430A7874
:101BC0004FF00F0E12F0FF0F4FF001021CD004680F
:101BD0000F8802FA05F63740B74211D14FEA850C5B
:101BE0000EFA0CF724EA070703FA0CF43C43CF780B
:101BF000282F02D0482F02D002E0466100E00661A3
:101C00006D1C082DE4D304600C88FF2C1ED9446899
:101C10005FF0000606F1080702FA07F50F882F406B
:101C2000AF420FD14FEA860C0EFA0CF7BC4303FA11
:101C30000CF73C43CF78282F00D14561CF78482F4F
:101C400000D10561761C082EE4D34460F0BD4161EB
:101C50007047016170470AB1016170474161704787
:101C6000FEE7FEE77047000070B50F23C4780178E7
:101C70000122F4B1144C2468457804F4E064C4F5FE
:101C8000E064240AC4F10406E3408478B5401C40B3
:101C90002C4301F1E021230181F80034007800F0A9
:101CA0001F018A404009800000F1E020C0F80021B7
:101CB00070BD01F01F0082404809800000F1E02063
:101CC000C0F8802170BD00000CED00E070470000FE
:101CD000044A0029116901D0014300E081431161E8
:101CE0007047000000100240044A0029916901D0A9
:101CF000014300E081439161704700000010024001
:101D0000044A0029D16801D0014300E08143D16039
:101D1000704700000010024030B5224A5168224B43
:101D200011F00C0103D0042903D0082903D003606B
:101D300016E01E4913E05168536801F470114FF02A
:101D4000020413F4803F04EB914104D053689B03D9
:101D500003D5154B02E0164B00E0144B59430160CC
:101D600051680F2303EA1111124B5C5C0168E140DA
:101D700041605468072505EA14241C5D21FA04F427
:101D80008460546805EAD4241B5DD940C160526860
:101D9000032303EA9232074B1B1F9A5CB1FBF2F15B
:101DA000016130BD0010024000127A000024F400EE
:101DB00000093D0004000020034A118821F0380189
:101DC0000143118070470000003001400029018864
:101DD00002D041F0400101E021F040010180704754
:101DE00070B586B0012141F20C00FFF77DFF294D4F
:101DF000284600F053F80021ADF800104FF482702F
:101E0000ADF80200ADF808106815ADF80A00202002
:101E1000ADF80C00ADF804100720ADF80610ADF8D1
:101E20000E10ADF810006946284600F068F8A020B2
:101E3000ADF8140018208DF81700174E03248DF804
:101E4000164005A93046FFF7B1FE4020ADF814005A
:101E500048208DF8170005A93046FFF7A7FE10218E
:101E6000ADF814108DF817108DF8164005A93046FE
:101E7000FFF79CFE0021284600F05DF8012128466E
:101E8000FFF7A4FF10213046FFF7E3FE06B0002065
:101E900070BD00000030014000080140114910B53C
:101EA00088420AD1841401212046FFF729FF2046E9
:101EB000BDE810400021FFF723BF0B49884202D143
:101EC0000121041404E0094988420AD10121C41304
:101ED0002046FFF7FDFE2046BDE810400021FFF739
:101EE000F7BE10BD0030014000380040003C00400B
:101EF0000246002012890A4200D00120704730B506
:101F000002884C8802F441530A88CD8822438C8889
:101F10002C4322430C8922434C8922438C8922433F
:101F2000CC8922431A430280828B22F4006282838E
:101F3000098A018230BD0029818802D041F0040164
:101F400001E021F004018180704770470FB400B5B3
:101F500099B01BAA68461A99FEF7AEF90A208DF8C7
:101F600063006946024800F0F6F819B05DF814FB0A
:101F7000003801400CB5002126480191009102680B
:101F800042F4803202604FF4A063026802F400322F
:101F90000092019A521C0192009A12B9019A9A4237
:101FA000F3D10268920333D5012100911A490A68DE
:101FB00042F010020A600A6822F003020A600A680E
:101FC00042F002020A604168416041684160416834
:101FD00041F480614160416821F47C1141604168B5
:101FE00041F4F8114160016841F0807101600168BD
:101FF0008901FCD5416821F003014160416841F04D
:10200000020141604168C1F381010229FAD10CBD8E
:1020100000910CBD001002400020024080B200F090
:102020009FBA4FF0E0210428086903D020F0040093
:102030000861704740F00400FAE770470F4810B598
:10204000016841F00101016041680D4A11404160A1
:1020500001680C4A11400160016821F4802101608F
:10206000416821F4FE0141604FF41F018160FFF7D8
:1020700081FF05494FF00060086010BD001002406C
:102080000000FFF8FFFFF6FE08ED00E030B587B076
:1020900001210420FFF728FE01218803FFF724FE19
:1020A00018208DF813004FF40070ADF81000204D8B
:1020B00003248DF8124004A92846FFF777FD482035
:1020C0008DF813002815ADF810008DF8124004A902
:1020D0002846FFF76BFD4FF4E130009000200C2103
:1020E000ADF80A10ADF80600124CADF80C00ADF8D2
:1020F0000800ADF804006946204600F0C5F801224A
:1021000040F22551204600F0A7F825208DF8140054
:1021100001218DF817108DF815108DF8161005A8EF
:10212000FFF7A2FD0121204600F066F807B030BDA0
:10213000000801400038014070B50C46054680217A
:10214000284600F063F80028F9D021462846BDE86B
:10215000704000F0F3B870B50C46054606E028461E
:10216000FFF7EAFF20780A2803D0641C21780029B1
:10217000F5D170BD70B51B4C40F22555294620465F
:1021800000F04BF801282CD1204600F0D3F8164A75
:10219000C1B200231078012630B1012809D00228ED
:1021A0000BD0032815D016E0412914D116705370B6
:1021B00011E042290FD1022009E00B4B5078DB1CC3
:1021C0001954401C10F0FF00507004D00320107010
:1021D00001E01370967029462046BDE8704000F07B
:1021E00005B870BD003801402C0000200A0A01210A
:1021F0009140C943018070470029818902D041F490
:10220000005101E021F40051818170470246002015
:1022100012880A4200D00120704730B501F01F0239
:1022200001240025C1F3421304FA02F2012B0FD05E
:10223000022B0FD0838A4FEA11210088134204FA3F
:1022400001F400EA040001D000B10125284630BDA8
:102250008389F0E7038AEEE710B5C1F3421301F07A
:102260001F040121A140012B07D0022B07D01430FD
:10227000002A026805D00A4304E00C30F8E7103069
:10228000F6E78A43026010BD30B50446008A85B087
:102290000D464CF6FF710840E98801432182A1896F
:1022A0004EF6F3100140A8882A8910436A890A4330
:1022B0001043A081A08A4FF6FF410840A98901433D
:1022C000A1826846FFF728FD1948844201D103988E
:1022D00000E00298A189090400EBC00101EB0010A5
:1022E000296801D5490000E08900B0FBF1F06422C3
:1022F000B0FBF2F109010B096FF018056B4300EB1D
:102300008300A3891D044FF0320306D503EBC00000
:10231000B0FBF2F000F0070005E003EB0010B0FBAB
:10232000F2F000F00F000843208105B030BD00003E
:10233000003801408088C0F308007047C1F30801ED
:1023400081807047FEE7490050EAC12018BF042091
:102350004A0D18BF40F0010040F2FF72B2EB515F2E
:1023600008BF40F00200012808BF0520704710B5E3
:10237000002202212C2000F0B7FC0222BDE8104010
:1023800011462C2000F0B0BC10B504466D2240F67A
:1023900006012E2000F0A8FC41F6060114B140F21F
:1023A000076201E041F20762BDE810402E2000F014
:1023B0007FBC10B5002000F007F800220421BDE822
:1023C0001040362000F074BC38B504466B4602223B
:1023D0000021362000F014FB0F2C2DD2DFE804F092
:1023E0001008162C2C2C2C1E3A2C2C454A4F56002B
:1023F00000208DF800009DF8010000F0FE0019E0BB
:102400009DF8000000F0FC00401C04E09DF8000076
:1024100000F0FC00801C8DF800000DE09DF800002D
:1024200000F0B30040F048008DF800009DF8010076
:1024300040F080008DF801006B460122002136201B
:1024400000F05AFC0122114636200DF1010300F084
:1024500053FC38BD9DF8000000F0B3008DF800007B
:102460009DF8010000F07F00E4E79DF8010040F0D6
:102470000200DFE79DF8010000F0FD00DAE79DF8BB
:10248000000000F0CF0040F02000C4E701208DF8EC
:1024900000000320CEE710B50E20FFF795FF4FF4A4
:1024A000004206212D2000F003FC012000F022F85C
:1024B000BDE810400120FFF787BF10B50246042198
:1024C0002D2000F0F5FB032206212D2000F00CFC4E
:1024D000002206212D2000F007FC0A21BDE8104053
:1024E0002D2000F06EBA30380A2801D20120704742
:1024F00000207047FFF792BD002805D04FF0E02183
:102500004FF40000C1F80001704710B51720FFF725
:1025100043FB002805D04FF0E0224FF40001C2F841
:10252000801110BD10B56FF00400FFF77AFD094867
:1025300009490068B0FBF1F0C1B2084801EB410263
:102540000170C2EBC1114FF6FF7202EAC101418076
:1025500010BD00001400002000127A0028000020A6
:102560000B49498848434FF0E021486100228A61C5
:10257000086940F0010008610869C30701D0C00381
:10258000FAD5086920F0010008618A6170470000EF
:10259000280000200B49097848434FF0E0214861AA
:1025A00000228A61086940F0010008610869C307D8
:1025B00001D0C003FAD5086920F0010008618A61E2
:1025C00070470000280000202DE9F05F04460578E0
:1025D000407977494FF00009C84631F810706078AB
:1025E000401EC6B2042D76D0072D74D00020714A4B
:1025F0008246E3791068002B01696ED021F48001D6
:102600000161217A81720169934621F440320261AD
:10261000217A4FF4403303EA01410A430261002169
:10262000042000F052FB3A4642F604012E2000F04E
:102630003FFB3046FFF7A8FE5F4F6049785D51F8D9
:10264000202007212B2000F040FB785D5C490A5CCC
:102650000B212B2000F048FB5A49282011F80A20B2
:102660000B2100F041FB785D574951F820200C21E7
:10267000282000F02AFBE079544901EB8000A17981
:1026800030F811200221272000F012FB50480421CD
:1026900030F81620272000F00BFBE07910B3A0786B
:1026A000042825D020220621272000F001FB282223
:1026B0002621272000F018FB4648E17800EB0610A1
:1026C00050F821200821272000F0FFFA6089B0B1DE
:1026D00018E000E001E0012089E741F48001FF08F3
:1026E00001618EE764220621272000F0E1FAE3E78A
:1026F00010220621272000F0DBFA1022D8E741F251
:102700004100608182B22021272000F0D1FA324FAF
:102710000C2123203A6800F0D8FA07EB4600042188
:102720008288232000F0C4FAA07950B1E0792B49C7
:102730000A5C0021212000F0D7FA4FF003094FF086
:10274000010805F00F00290740EA116062784FF494
:10275000402101EA824108434FF4401202EA095144
:1027600008434FF4003202EA4841084321794FF010
:10277000F86202EA81510843617940EAC1620021AE
:102780001F2000F0A2FAA07861780843E1790004E4
:1027900040EA4132DBF800000021C260082000F06E
:1027A00094FABDE8F05F422200210D2000F09CBAAF
:1027B000843C000834000020063C0008283C000847
:1027C000403C0008463C0008103C0008543C00080F
:1027D000603C0008643C0008483C0008503C00088D
:1027E00070B500210E2000F0ECF80446FFF78DFED6
:1027F0000546002211460E2000F067FA4022002113
:102800000D2000F071FA0A4A00210F2000F05DFA55
:1028100000F03AFA224600210E2000F056FA28462F
:10282000FFF76AFE034900200968487570BD000083
:10283000F8FF27243400002070B5584C05460026C8
:10284000206806754675C6828662C6620663466360
:1028500000F0D2F85249884201D0881770BDA8070D
:1028600002D400F0C1F902E015F0F80F02D1002007
:10287000FFF7AAFD04220021242000F035FAA80762
:1028800010D40420FFF719FE10F0FF0F18D0022219
:1028900012212D2000F028FA2068C18A41F48051CD
:1028A000C1820DE03021282000F08BF8B0F1883F84
:1028B00004D02068C18A41F48051C18228070BD519
:1028C0001E20FFF7FAFD226880B2010AD172A90723
:1028D00009D4C10603D003E02068C67203E01020CB
:1028E000C0B200F078F9E80605D50620FFF7E5FD4F
:1028F0002168086001E020680660A80605D5072069
:10290000FFF7DBFD2168486001E02068466068064B
:1029100005D50820FFF7D1FD2168087201E0206885
:102920000672280605D50920FFF7C7FD2168487201
:1029300001E020684672A8070FD4E80702D0FFF72D
:10294000AAFD0CE00521362000F02CF820F40072DE
:102950000521362000F0ACF906E0680704D42068B1
:10296000C18A41F40061C1820120FFF72DFD0022E0
:102970000A212C2000F0B8F90021042000F021F8F1
:1029800021680861C0F3014088720021082000F02E
:1029900018F82168C860002070BD000034000020D5
:1029A0003001CADE08B589B280B26B46022200F05F
:1029B00027F89DF800009DF8011000EB012080B27F
:1029C00008BD38B5002489B280B26B46042200F0FD
:1029D00017F803216846425C491E02EB0424FAD52D
:1029E000204638BD08B589B280B26B46012200F09E
:1029F00007F89DF8000008BD00210846FFF7E1BF79
:102A000008B551B140F040008DF80000C8B27F29F0
:102A100007D88DF8010002200BE08DF8000001209E
:102A200007E040F080008DF80100C8098DF8020031
:102A30000320694600F070FB08BD30B414460A4616
:102A40002146034630BC1120FFF7DABF03460522BA
:102A500000211520FFF7D4BF0346052200211720CF
:102A6000FFF7CEBF70B50446400701D400F00CF963
:102A70004FF480752A46E00701D04FF440720021E0
:102A80000D2000F015F9E00711D003210F20FFF70A
:102A9000A9FF00070BD5FFF7A3FEA00704D42A4621
:102AA00000210D2000F004F94FF0FF3070BD002030
:102AB00070BD10B5E0220321362000F015F9F02298
:102AC0000321BDE81040362000F00EB90246012176
:102AD0000A2000F0FAB8000070B50446C0074FF0B5
:102AE00000014FF0260026D0FFF76BFF20F4705056
:102AF00040F4A0520021262000F0E7F80021362003
:102B0000FFF75FFF40F404020021362000F0DDF8FB
:102B10004FF48875A00700D50B4D28212A46362092
:102B200000F0D3F8A0070DD52821AAB23620BDE8C1
:102B3000704000F0CAB8FFF744FF20F47052002143
:102B40002620F4E770BD000010010F00024624218A
:102B5000272000F0ADB810B5044600211A20FFF779
:102B600030FFC4F313026FF3130002430021BDE8EA
:102B700010401A2000F0A9B8024641F604012E20A8
:102B800000F096B870B5064603210420FFF72AFF2F
:102B90000D4D04465EB1324600210C2000F088F84D
:102BA000286844F01002016941F0805105E020F0EE
:102BB00010022868016921F080510161BDE8704070
:102BC0000321042000F090B83400002002460021C8
:102BD000182000F06DB800F01F0040F060020E21D8
:102BE0002B2000F081B8000010B5FFF7E2FB0022B7
:102BF00011462C2000F05CF8002206212C2000F069
:102C000073F8FFF7B4FB00220321362000F06CF8C4
:102C10000120FFF76FFCF0220321362000F064F85A
:102C2000024900200968487510BD000034000020EA
:102C300010B500242146820704D5124B80210122C1
:102C40001B685A75C00714D041F0060200210D2000
:102C500000F04AF803210F20FFF7A4FE10F4816F63
:102C60000DD0402200210D2000F03EF84FF0FF343F
:102C700005E041F0020200210D2000F035F8204669
:102C800010BD00003400002010B503210F20FFF715
:102C9000A9FE00F0800100F04000B1EB400F06D02B
:102CA00001220321BDE810400D2000F01DB810BD29
:102CB00008B589B28DF80020120A8DF8012080B283
:102CC0006B46022200F018F808BD38B500236C46A8
:102CD000E254120A5B1C042BFADB89B280B2234651
:102CE000042200F009F838BD07B589B280B202AB02
:102CF000012200F001F80EBD08B551B140F0C0004E
:102D00008DF80000C8B27F2909D88DF80100022093
:102D10000DE040F080008DF80000012007E040F059
:102D200080008DF80100C8098DF802000320694673
:102D300000F05AFA08BD10B514460244B2F5806F8F
:102D400007D80B46821E21460920FFF7D5FF002039
:102D500010BD4FF0FF3010BD890541EAC232044971
:102D60000968C96801430A4300210820FFF7ADBF85
:102D70003400002010B500220A60835CD400A34018
:102D80000C68521C23440B60042AF6DB10BD7CB592
:102D9000002425466846FFF759FE042069462D02A7
:102DA00045EA146522020C5C1443401EF7D5204608
:102DB00029467CBD8EB001211020FEF795FF102022
:102DC0008DF82F004402ADF82C400320AF4D8DF854
:102DD0002E000BA92846FEF7E9FE21462846FEF7FD
:102DE00038FFFFF79FFBFFF751F900F089F9DFF893
:102DF000B482A7A14046FFF7AEF900F0CBF900F08E
:102E000087F90120FFF718FD401C7DD000F07DF907
:102E1000A548FFF7D9FB0120FFF75EFE44F234041A
:102E20002046FFF7A9FE2046FFF7D0FE0820FFF757
:102E30008DFE9D4C9D4DDFF87892DFF878B24FF013
:102E4000000A303C0020FFF79DFE0020FFF70AFE3D
:102E500000210F20FFF7B5FD28426060F8D0A08860
:102E600040047DD54FF4804200210F20FFF72DFF55
:102E700000211020FFF7A5FDC0F30901B1F5806F17
:102E800003D800228A48FFF7D8FD874956464F46A7
:102E900089F802A00A220C318548FDF71FFA0028A4
:102EA000D0D1FFF774FF844AC4E90201821841F1CE
:102EB0000000010641EA1220FFF708FE4FF4FA7005
:102EC000FFF749FE40F6E440FFF75CFE76492078C4
:102ED0001831002288700F20FFF72DFF01220021FA
:102EE0000F20FFF739FF0320FFF7A2FE401CA9D0F7
:102EF00000210F20FFF765FD28426060F8D02078A0
:102F0000401C2070A08800E0A4E040047ED54FF46F
:102F1000814200210F20FFF7D8FE00211020FFF78B
:102F200050FD00F07F01182903D800226048FFF708
:102F300084FD5D49BE700A2227315D48FDF7CEF958
:102F40000028ADD100273E4604A8FFF785FD0420E8
:102F500004A9360246EA17663A020F5C174300E0FE
:102F60008BE0401EF5D5C4E90476FFF710FFC4E9F5
:102F700006014F480CA90A30FFF7FCFE4C480DA98A
:102F80000E30FFF7F7FE4A4803A91230FFF7F2FEB2
:102F9000A0680890A76926690D980C990190401ABD
:102FA00000F0D1FB07910290B81B00F0CCFB074664
:102FB000059103990198081A00F0C5FB0490089840
:102FC0000191301A00F0BFFB009008913A46059B32
:102FD0000799029800F066F9019B049A00F062F9E3
:102FE000089B009A00F05EF9CDE90910DDE90021A7
:102FF000089B049800F0BAFB064601913A46059BEF
:103000000799029800F0B2FB324600E031E0019BE4
:1030100000F0AAFCDDE9093200F0ECF900F08EFDC9
:1030200000F040FB254A264B00F0A0FB4FF09852E1
:10303000244BC4E9080100F099FBC4E90A010246E7
:103040000B4621A0FEF782FF2148018821A0FEF750
:103050007DFFF7E64FF47A77464622A13046FFF728
:103060007AF821462846FEF7F2FD3846FFF742FA85
:10307000F3E71FA14046FFF76EF85A4600210F20E4
:10308000FFF723FEFFF715FDDCE60000001001400E
:1030900053746172742044573130303020496E6966
:1030A000740A0000003801406800002000D0272486
:1030B000E0000020009027240000BE0AFA48CE3B22
:1030C0001835B13D19DDB141413A256600000000D7
:1030D0002F00002020202020202020202020423AE5
:1030E00025640A00496E6974204661696C0A000013
:1030F0004E6F20464E414C204572726F720A00009E
:1031000010B5FEF76DFE002010BD0820FEF754BE7E
:103110002020FEF751BE00002DE9F05F1D46164647
:103120008A4607460024FFF7F0F918494FF01009C6
:103130008346C1F80090DFF858800DE01AF80410BB
:10314000A8F80C1001214046FEF7D2FE0028F9D065
:10315000B8F80C002870641CBC42EFDB002002466B
:10316000414606E08A810B89DB07FCD08B892B5412
:10317000401CB042F6D30549091FC1F800905846DB
:10318000FFF7BAF90020BDE8F09F000014080140E5
:1031900000300140F8B54FF48054ADF800401020E5
:1031A0008DF803000F4E03258DF802506946304616
:1031B000FEF7FCFC002221463046FEF74CFD0120C4
:1031C000FFF7E8F9ADF8004000208DF803008DF816
:1031D000025069463046FEF7E9FC0220FEF71EFF6A
:1031E000F8BD0000000C01402DE9F041984615465D
:1031F0000F4606460024FFF788F9024611481023BF
:103200000360114806E0395D81810189C907FCD05E
:103210008189641CB442F6DB002107E018F8014004
:1032200084810489E407FCD08489491CA942F5D330
:103230000448001F03601046FFF75EF90020BDE858
:10324000F0810000140801400030014010B5002951
:103250000AD00878002807D005487844FEF78AF895
:10326000002801D0002010BD0248784410BD0000A5
:103270007A0B0000720B000010B500290AD0087804
:10328000002807D005487844FEF774F8002801D0DC
:10329000002010BD0248784410BD00006A0B0000F9
:1032A000620B000010B591EA030F48BF83F00043A2
:1032B00000F16283841A71EB030C05D2121943EBFF
:1032C0000C03001B61EB0C01DFF824E14FEA115401
:1032D000A4EB135C1EEA430F18BF9EEA445F73D051
:1032E00023EA0E03DCF1200E21EA045143F480139B
:1032F00032D322FA0CFE10EB0E0023FA0CFE41EB47
:103300000E01CCF1200E03FA0EFE10EB0E0051F16F
:103310000001B1F5801FCCF1200E32D201EB045137
:1033200012FA0EF2BDE8104058BF7047401C38BF7B
:103330005FEA420218BF7047002814BF20F0010066
:1033400041F100014FEA410313F5001F38BF7047F8
:10335000A1F1C04100F002BB012A43EB0302ACF132
:10336000200CDCF11F0E32BF4FF0000E23FA0CF3DD
:1033700010EB030041EB0451B4EB115FD0D0A1EB93
:10338000045101F5801149085FEA300001EB045156
:103390000ED350F1000038BF12FA0EFE08D1BDE87E
:1033A0001040C9E7401C38BF5FEA4202CAD1C3E7F8
:1033B000BDE810404FEA410313F5001F38BF7047C6
:1033C000A1F1C04100F0CABA9EEA445F08D011EAF8
:1033D0005E0FBDE8104004BF01F0004100207047BF
:1033E000BDE8104070B500F06BFA00BF64FBBE3E54
:1033F0000000E0FF2DE9C04130B4DFF8A0C23CEA94
:10340000111418BF3CEA131400F0EC8081EA0305A4
:103410001CEA111444EAD57418BF1CEA131500F015
:10342000C780A4EB05044FF0004545EAC12145EAF9
:10343000C32341EA505143EA525304F17F74994245
:1034400004F500344FEAC0204FEAC22208BF904280
:1034500000F09C804FEA13650FF24016765D4FEA4C
:10346000134506FB05F7C7F1807706FB07F74FEA20
:10347000D737A7FB03687642C8F58038A7FB06CE8E
:1034800038BFA8F1010807FB08E64FF0000EA6FBC5
:10349000028CE6FB03CEDCF1000CCEF1004E38BF0F
:1034A000AEF1010EA6FB0C584FF000074FF00005DF
:1034B000E6FB0E87A1FB08C6A0FB07CE16EB0E06A7
:1034C00045F10005E1FB076515F1E04E7EBFA4F56F
:1034D00080345FEA46066D4116F1800745F100052C
:1034E0004FEA17274FEA066647EA0567A6F1DE4668
:1034F000B6F1805F4FEA15251FD9384624F0010C3C
:1035000005EBC471BCF1FE6F01EB0C1102D8F0BCED
:10351000BDE8008124425CBF01F5801E9EEAC47FA5
:1035200002D4F0BCBDE80081244238D4F0BCA1F143
:10353000C041BDE8004100F011BA4FEAD22242EA90
:1035400043524FEAD323A7FB02864FEAD02040EA3A
:10355000415007FB03661EEA0E0F4FEAD12105FB1F
:10356000026658BFA6EB0056B6EB00564FEA520E65
:103570004EEAC37E18EB0E0E56EB530EBDD518EB7C
:1035800002085E417F1C55F10005B6E74FF4801537
:103590004FF000074FF000064FF00008ADE7F0BC19
:1035A0004FF0000001F1C04101F00041BDE8008191
:1035B00011EA0C1F0CEA131500D00CE013EA0C1FE3
:1035C00000F025804FF00000F0BC81EA030101F01B
:1035D0000041BDE80081F0BCBDE8004181EA030183
:1035E00000F0BCB9F0BCBDE8004170B500F068F96E
:1035F000097EFC3E00F007B881EA03014FF00000AD
:1036000001F00041704781EA030100F0A7B9F0BC66
:10361000BDE800414FF0000021497047FFFDFBF974
:10362000F7F5F4F2F0EEEDEBE9E8E6E4E3E1E0DEF5
:10363000DDDBDAD8D7D5D4D3D1D0CFCDCCCBCAC867
:10364000C7C6C5C4C2C1C0BFBEBDBCBBBAB9B8B78E
:10365000B6B5B4B3B2B1B0AFAEADACABAAA9A8A881
:10366000A7A6A5A4A3A3A2A1A09F9F9E9D9C9C9B4F
:103670009A999998979796959594939392919190FA
:103680008F8F8E8E8D8C8C8B8B8A8989888887878B
:103690008685858484838382828181800000FF0700
:1036A0000000F87F7FEAE17202D1101A62EB01019B
:1036B000B1FA81F30B3B24D3994012D1B0FA80F3D5
:1036C00010FA03F108BF7047C3F11D0303F540630F
:1036D00003EBC2234FEAD1224FEA415002EB0351E0
:1036E0007047C3F1200C20FA0CFC9840C3F1320360
:1036F00003F5406303EBC22341EA0C0101EB0351E4
:10370000704710B5C3F1320CC3F10004C4F1200EB0
:103710000CF5406C0CEBC22201FA0EFC21FA04F10C
:1037200000FA0EF3E040BDE8104040EA0C0001EB67
:10373000025138BF7047401C41F100015B0008BFD7
:1037400020F001007047B0FA80F310FA03F10AD0BC
:10375000C3F11D0303F580634FEA41504FEA035262
:1037600002EBD12170474FF000007047DFF848C1ED
:1037700070B51CEA111E1EBF1CEA13159EEA0C0F41
:1037800095EA0C0F00F06F8081EA030423EA4C13E2
:103790004EEAD47E21EA4C1141F4801143F48013A7
:1037A000AE44A1FB024CA0FB0365AEF17F7E36194F
:1037B00055EB0C05A1FB034C4CF10003A0FB021CD4
:1037C00016EB0C06654153F10003094218BF46F0A1
:1037D000010613F4007F0BD14FEA03314FEA0530A5
:1037E000340341EA155140EA16506FF003020AE033
:1037F0004FEAC3214FEAC520F40241EA555140EA9D
:1038000056506FF0020202EB2E4201EB025585EAA0
:10381000CE710AD05FEA440C18BF24F0004450F186
:10382000000041F1000120EAD47040F2FE7C6245C4
:1038300000D270BDA84214BF4FF080444FF0404406
:10384000002E08BF0024BEF1806FA8BFA1F1C041C7
:10385000BDE8704080F282804FF0000001F1C0416D
:1038600001F0004170479EEA0C0F0CEA131518BFD7
:1038700095EA0C0F06D04FF0000081EA030E0EF01F
:10388000004170BD00F01CF88900013E00F007B84F
:1038900000F009B84FEA430C5FEA5C5C08D081EAAB
:1038A000030100F05BB84FEA410C5FEA5C5CF6D1C3
:1038B0004FF00000014970470000FF070000F87F4B
:1038C0000EF1020E2EF0030E5EF8046B364205D4A4
:1038D000012A43EB030515F5001F12D8012841EB1F
:1038E000010C1CF5001F0CD80ED14FEAD17C15F548
:1038F000001F0CEB4C0C0CF1020C08BF4CEBD37C02
:1039000004E04FF0080C01E04FEAD37C0CEB4C05CF
:1039100026FA05F606F00706B6F1040C06D20EEB01
:10392000860CBDE870404CF0010C6047DFE80CF0FD
:10393000090B02024FF000414FF00000A1F50021F9
:1039400070BD19461046012851EB010418BFD4F58B
:10395000001484BF002001F0004170BD0808A0F5EC
:1039600000114FEA3101704710B591EA030F48BFCB
:1039700083F000433FF59EAC841A71EB030C07D231
:1039800012198CF0004C43EB0C03001B61EB0C0193
:10399000DFF8A4E14FEA1154A4EB135C1EEA430FD5
:1039A00018BF9EEA445F00F0B08023EA6E035242E3
:1039B00021EA0451C3EB6E0338BF5B1EDCF1200E1D
:1039C00025D322FA0CFE10EB0E0043FA0CFE41EB5D
:1039D0000E01CCF1200E03FA0EFE10EB0E0051F199
:1039E0000001CCF1200E29D412FA0EF201EB0451A1
:1039F000BDE8104058BF7047401C1CBFB2F1004FDB
:103A0000704700280CBF491C20F00100704712EBE2
:103A1000020E43EB030218BF4FF0010E4EEA4202C2
:103A2000ACF1200CDCF11E0E54D943FA0CFE10EB65
:103A30000E0051F1FF31CCF11E0ED5D50EF1010E65
:103A400012FA0EFE404141EB010101EB445C5FEADA
:103A50005C5C10D910EBDE7001EB045138BFBEF195
:103A6000004FBDE8104018BF704700280CBF491C2C
:103A700020F00100704730D24FEAD42C11F500112C
:103A800024F400641BD0B1FA81F20B3AA41AA41EEC
:103A9000D2F12003914030FA03F31943904001EB37
:103AA000CC71002C01EB0451BDE81040A8BF704759
:103AB00001F1C0414FF0000001F000417047B0FA41
:103AC00080F310FA03F100D110BDE41A173C480549
:103AD000C90AE4E701EB045110BD491001EB0451A0
:103AE000BDE810404FEA300002E04FF0000170479F
:103AF0004A0008BF0042F8D0B2F5001F28BF704747
:103B000001F000414FF0000070479EEA445F07D08B
:103B100011EA5E0FBDE8104004BF0021002070478D
:103B2000BDE8104070B5FFF7CBFE00BF40DFF63EAA
:103B300083F00041104670470000E0FF4FEAC123C8
:103B40000A1543EA50534FEAC02C18BF43F0004314
:103B50001BD4A2F24E02D2F57C7240F34280502A6E
:103B6000A8BF502223FA02F12CFA02F0D2F120026F
:103B700060B403FA02F588BF2843C2F1000223FAB9
:103B800002F598BF284360BC704702F57C7212F5BD
:103B9000826F08BF23F00043D2F12E0221DB1AD03E
:103BA000502AA8BF502223FA02F12CFA02F0D2F1D7
:103BB000200260B403FA02F588BF2843C2F1000274
:103BC00023FA02F598BF284360BC4042C1F10001CE
:103BD00038BF491E70479CF0000F08BF93F0004F9C
:103BE000DED070B5FFF76CFE9224498000214FF0C3
:103BF000000070476FEAE17080F000417047FCF709
:103C0000C6BFFDF7FBB80000010203040005000079
:103C1000405C0000A05C0400C06C0800805C0400F4
:103C2000E03F1E00E07D1E00070400090805400873
:103C300009104008080540081D0400081D0400087C
:103C40001E265626BEBED8BC07A9022570889B88B2
:103C5000401008000A0016000100060001000200E2
:103C600087008D003C001A3152001A339A001A3531
:103C70001D011A376B003B31BE003B335E013B3503
:103C800096023B37000098599859EA518E421E45DA
:103C9000142E0080EA51F4283233E03A703DE03AC5
:103CA000C235842BC2353233C235C235AE47E03A15
:103CB0005038A23050380000000000000000000022
:103CC0003031323334353637383941424344454652
:103CD000403058003031323334353637383961624C
:103CE000636465664030780004000008000000004E
:103CF000000000020001000010303132333435364C
:103D00003738396162636465667870003031323308
:103D1000343536373839414243444546585000001F
:103D200002400000000000A000000000054000006C
:103D3000000000C8000000000C4000000000409C93
:103D400000000000194000000020BCBE0000000080
:103D500034400000BFC91B8E00000004B5400000C5
:103D6000504BCFD06607E2CF010000006C4100004D
:103D70003E8251AADFEEA73401000000D9420000C4
:103D8000DCB5A0E23A301F97FFFFFFFFB44500000B
:103D9000FD25A0C8E9A3C14FFFFFFFFFFF3F0000C3
:103DA0000000008000000000FF3F000000000080D5
:103DB00000000000003F000800000020A8000000F4
:103DC0006C010008A83F0008A8000020B006000011
:103DD000880100081C00000043000000F8FFFFFFFE
:103DE0000C0000000E0000000F0000002E0000007C
:103DF0001001000043000000F8FFFFFF00404040BA
:103E000040404040404041414141414040404040AD
:103E10004040404040404040404040404005020259
:103E20000202020202020202020202020220202018
:103E30002020202020202002020202020202909074
:103E40009090909010101010101010101010101072
:103E500010101010101010100202020202028888C6
:103E600088888888080808080808080808080808D2
:103E700008080808080808080202020240000000BA
:103E80000000000000000000000000000000000032
:103E90000000000000000000000000000000000022
:103EA0000000000000000000000000000000000012
:103EB0000000000000000000000000000000000002
:103EC00000000000000000000000000000000000F2
:103ED00000000000000000000000000000000000E2
:103EE00000000000000000000000000000000000D2
:103EF00000000000000000000000000000000000C2
:103F00000204060800000000010203040102030489
:103F10000607080900A24A04000000000000000093
:103F20000102030406070809000000000000000069
:103F300000000000A80000200000000000000000B9
:103F40000000000000000000000000000000000071
:103F50000000000000000000000000000000000061
:103F60000000000000000000020208020909010030
:103F700000002104418800CADE414156452100006D
:103F8000418800CADE42455741100200000000414E
:103F90008800CADE434156452300000000000000AF
:083FA000000000000000000019
:0400000508000131BD
:00000001FF
